:020000040800F2
:1000000000200020450800083708000839080008CB
:1000100000000000000000000000000000000000E0
:100020000000000000000000000000003B08000885
:1000300000000000000000003D0800083F08000824
:10004000950800089508000895080008950800081C
:10005000950800089508000895080008950800080C
:1000600095080008950800089508000895080008FC
:1000700095080008950800089508000895080008EC
:1000800095080008950800080000000035080008E1
:1000900095080008950800089508000895080008CC
:1000A00095080008950800089508000895080008BC
:1000B00095080008000000009508000800000000F6
:1000C00003B47146490840004900095E49008E4466
:1000D00003BC7047002243088B4274D303098B4250
:1000E0005FD3030A8B4244D3030B8B4228D3030C08
:1000F0008B420DD3FF22090212BA030C8B4202D3AA
:100100001212090265D0030B8B4219D300E0090AD1
:10011000C30B8B4201D3CB03C01A5241830B8B42DA
:1001200001D38B03C01A5241430B8B4201D34B03C3
:10013000C01A5241030B8B4201D30B03C01A524128
:10014000C30A8B4201D3CB02C01A5241830A8B42AD
:1001500001D38B02C01A5241430A8B4201D34B0296
:10016000C01A5241030A8B4201D30B02C01A5241FA
:10017000CDD2C3098B4201D3CB01C01A52418309AE
:100180008B4201D38B01C01A524143098B4201D3E8
:100190004B01C01A524103098B4201D30B01C01A13
:1001A0005241C3088B4201D3CB00C01A524183088D
:1001B0008B4201D38B00C01A524143088B4201D3BA
:1001C0004B00C01A5241411A00D20146524110461A
:1001D0007047FFE701B5002000F0F0F802BDC0460F
:1001E0000029F7D076E7704703460B437FD40022FF
:1001F00043088B4274D303098B425FD3030A8B42BB
:1002000044D3030B8B4228D3030C8B420DD3FF2224
:10021000090212BA030C8B4202D31212090265D0F2
:10022000030B8B4219D300E0090AC30B8B4201D3A5
:10023000CB03C01A5241830B8B4201D38B03C01AEC
:100240005241430B8B4201D34B03C01A5241030B63
:100250008B4201D30B03C01A5241C30A8B4201D314
:10026000CB02C01A5241830A8B4201D38B02C01ABF
:100270005241430A8B4201D34B02C01A5241030A36
:100280008B4201D30B02C01A5241CDD2C3098B421B
:1002900001D3CB01C01A524183098B4201D38B0198
:1002A000C01A524143098B4201D34B01C01A52413B
:1002B00003098B4201D30B01C01A5241C3088B4280
:1002C00001D3CB00C01A524183088B4201D38B006B
:1002D000C01A524143088B4201D34B00C01A52410D
:1002E000411A00D201465241104670475DE0CA0FE4
:1002F00000D04942031000D34042534000229C46A4
:1003000003098B422DD3030A8B4212D3FC228901AD
:1003100012BA030A8B420CD3890192118B4208D383
:10032000890192118B4204D389013AD0921100E0E5
:100330008909C3098B4201D3CB01C01A52418309F9
:100340008B4201D38B01C01A524143098B4201D326
:100350004B01C01A524103098B4201D30B01C01A51
:100360005241C3088B4201D3CB00C01A52418308CB
:100370008B4201D38B00C01A5241D9D243088B4221
:1003800001D34B00C01A5241411A00D201466346C4
:1003900052415B10104601D34042002B00D5494228
:1003A000704763465B1000D3404201B5002000F067
:1003B00005F802BD0029F8D016E770477047C0461F
:1003C0001C2101231B04984201D3000C10391B0A85
:1003D000984201D3000A08391B09984201D3000949
:1003E000043902A2105C40187047C04604030202A0
:1003F00001010101000000000000000010B5064CE2
:100400002378002B07D1054B002B02D0044800E0D5
:1004100000BF0123237010BD500000200000000029
:1004200010190008044B10B5002B03D003490448F1
:1004300000E000BF10BDC0460000000054000020D6
:100440001019000882B0430018180023019304E03B
:10045000C046C046019B01330193019B8342F7D301
:1004600002B0704770B51420FFF7ECFF0A4CA36987
:1004700080252D022B43A3611420FFF7E3FFA2691F
:1004800080231B061343A3611420FFF7DBFFA3693E
:100490001D43A56170BDC0460008004810B50400AA
:1004A000454A91698023DB010B43936143B2002BE2
:1004B00046DB9022D205916980231B060B43936192
:1004C000630645D59022D205916980235B010B43D9
:1004D0009361A30644D5394A916980239B000B435D
:1004E0009361E30643D5354A916980235B000B4352
:1004F0009361FFF7B7FF230740D59022D20591699A
:1005000080231B020B43936163073FD59022D205E2
:10051000916980235B010B439361A3073ED5274A72
:10052000916980239B000B439361E4073DD5234AE7
:10053000916980235B000B439361FFF793FF10BD2C
:100540009022D205916980231B020B439361B7E788
:100550009022D205916980235B050B439361B8E734
:10056000164A916980239B040B439361B9E7134AB0
:10057000916980235B040B439361BAE79022D20513
:10058000916980231B060B439361BDE79022D2053E
:10059000916980235B050B439361BEE7074A91692C
:1005A00080239B040B439361BFE7044A9169802336
:1005B0005B040B439361C0E7000800480004004857
:1005C00070B50500002403E0FFF768FF0134E4B2D2
:1005D000285D0028F8D170BD10B50400474A916924
:1005E0008023DB050B43936143B2002B49DB902250
:1005F000D205916980231B060B439361630648D59E
:100600009022D205916980235B010B439361A3067D
:1006100047D53B4A916980239B000B439361E306D6
:1006200046D5374A916980235B000B439361FFF7FE
:1006300019FF230743D59022D205916980231B021D
:100640000B439361630742D59022D20591698023C1
:100650005B010B439361A30741D5294A916980232C
:100660009B000B439361E40740D5254A91698023A1
:100670005B000B439361FFF7F5FE2248FFF7E2FEB4
:1006800010BD9022D205916980231B020B43936118
:10069000B4E79022D205916980235B050B439361F7
:1006A000B5E7174A916980239B040B439361B6E732
:1006B000134A916980235B040B439361B7E790224F
:1006C000D205916980231B060B439361BAE7902200
:1006D000D205916980235B050B439361BBE7084A10
:1006E000916980239B040B439361BCE7044A9169A1
:1006F00080235B040B439361BDE7C04600080048BC
:1007000000040048B80B000010B51B4B596980224B
:1007100092020A435A6159698022D2020A435A61FD
:100720005969802212030A435A619022D205116846
:100730008223DB050B431360104A1168A023DB0200
:100740000B4313600E4A1168A023DB050B431360B3
:100750000C48FFF777FE3320FFF73EFF3220FFF70C
:100760003BFF0C20FFF738FF2820FFF735FF012063
:10077000FFF732FF10BDC0460010024000040048E1
:1007800000080048307500000A4AD16980235B00E8
:100790000B43D361084B9A6A01210A439A62DA6AD1
:1007A0002F200243DA62DA680A43DA601A680A43E1
:1007B0001A607047001002400020004030B585B03C
:1007C000FFF7A2FF0120FFF707FF1648FFF7F8FE2B
:1007D000FFF7DAFF00240025134B1B69DB07FBD56D
:1007E000114A136901218B43136100220F4B200032
:1007F000290000F0F3FC04000D0001F04DF8642125
:10080000FFF7D8FD0029E7D1094922002B0001A8F4
:1008100000F042F80120FFF7DFFE01A8FFF7D0FE4D
:10082000DAE7C04628190008002000400000E03F39
:10083000301900087047FEE7FEE7704770477047C1
:10084000704700000D488546FFF7FAFF0C480D4938
:100850000D4A002302E0D458C4500433C4188C421B
:10086000F9D30A4A0A4C002301E013600432A24281
:10087000FBD300F031F8FFF7A1FFFEE700200020D6
:1008800000000020500000207019000850000020D7
:10089000B8010020FEE700000EB400B50B499CB083
:1008A0001DAB02900690079104910948094904CBB9
:1008B0000591006802A9019300F094F80022029BC0
:1008C0001A701CB008BC03B01847C046FFFFFF7F7A
:1008D000000000200802FFFF70B500260C4C0D4DF3
:1008E000641BA410A64209D1002601F011F80A4C9D
:1008F0000A4D641BA410A64205D170BDB300EB588D
:1009000098470136EEE7B300EB5898470136F2E717
:1009100068190008681900086C19000868190008AF
:1009200070477047F0B58E6885B01F000C000B68EB
:1009300002900392BE4230D80C21625E9021C90021
:100940000A4228D0032021695B1A0193636943435B
:100950000198DD0FED187B1C1B186D10AB4200D900
:100960001D00520528D52900029800F05BF9061EEB
:100970002CD0019A216900F0C8FBA289184B1A40BB
:1009800080231343A381019B2661F61826603E0055
:100990006561ED1AA560BE4200D93E0032000399A0
:1009A000206800F082FB0020A3689B1BA3602368E3
:1009B0009B19236005B0F0BD2A00029800F046FBA9
:1009C000061EE0D12169029800F0A8FB0C2301204B
:1009D000029A40421360A28934331343A381E9E7AA
:1009E0007FFBFFFFF0B5A1B003901D008B890F00C6
:1009F00016001B0611D50B69002B0ED1402100F00B
:100A000011F938603861002805D10C23039A13606E
:100A100001204042CFE040237B61002308AC6361AA
:100A2000203363761033A376079535002B78002B9F
:100A300001D0252B48D1AB1B0593B5420BD032001A
:100A400039000398FFF76EFF013000D1AEE0636913
:100A5000059A9B1863612B78002B00D1A6E0012238
:100A600000235242626004A9543252186E1C236063
:100A7000E360A3601370A365544B0522180031781E
:100A8000059300F037FB751C00281FD12268D306A0
:100A900004D5532304A95B1820211970130704D52A
:100AA000532304A95B182B21197033782A2B16D0F5
:100AB000350000210A20E3682A786E1C303A092AA2
:100AC00050D9002911D117E00135AFE7059B226805
:100AD000C01A0123834013432E002360CCE7079BF9
:100AE000191D1B680791002B01DB0B9304E05B428F
:100AF000E3600223134323602B782E2B0CD16B78F9
:100B00002A2B34D1079B02351A1D1B680792002B34
:100B100001DA01235B4209932D4E0322300029782C
:100B200000F0E8FA002806D04023801B83402268AA
:100B30000135134323602978062226486E1C21764E
:100B400000F0D8FA002838D0234B002B22D10722FE
:100B5000079B07339343083307936369049A9B18F1
:100B6000636162E74343350001219B18A4E700233A
:100B70000A201900013563602A786E1C303A092A70
:100B800003D9002BC8D00991C6E7414335000123A2
:100B90008918F1E707AA009221003A000F4B039849
:100BA00000E000BF0490049B0133D6D1BB890D98AF
:100BB0005B0600D52CE721B0F0BD07AA009221000A
:100BC0003A00064B039800F017F9EBE733190008D9
:100BD000391900083D190008000000002509000827
:100BE00070B50F4E0D0031680400002902D100F0ED
:100BF0006FFA30602900200000F06AFA431C03D12C
:100C000001256D42280070BD0323C51C9D43A842E9
:100C1000F8D0291A200000F05BFA0130F2D1EFE79A
:100C2000A80100200323F7B5CD1C9D43083506001D
:100C30000C2D34D20C25A94233D8300000F0F6F93F
:100C4000344F3B681C00002C2FD129003000FFF7E7
:100C5000C7FF0400431C58D13C682100002949D13A
:100C6000002C4CD023683000E318019300F030FAD8
:100C7000019B834243D123683000ED1A2900FFF71E
:100C8000AFFF01303BD023685B1923603B68002B2A
:100C90003DD05A68A24230D100225A6012E0002DA5
:100CA000C9DA0C2333600020FEBD2168491B1ED425
:100CB0000B2917D962192560A34211D13A606368E4
:100CC00011605360300000F0B9F9200007220B30AA
:100CD000231D9043C21A9842E6D01B1AA350E3E7A3
:100CE0005A60ECE76268A342D7D13A60EAE7230092
:100CF0006468A8E70C004968B0E71300C7E70C2355
:100D00003000336000F09AF9CDE70560DAE75B6008
:100D1000FFDEC046AC010020F7B5160001938A68DB
:100D20000B690C000090934200DA1300220033603C
:100D300043321278002A01D00133336023689B06C6
:100D400002D53368023333602268062315001D4044
:100D50001A4227D0230043331B785A1E934122683E
:100D6000920630D4220001990098089D4332A8478A
:100D7000013025D00622236800251340042B05D11D
:100D80003368E568ED1AEB43DB171D40A368226961
:100D9000934201DD9B1AED180026B54220D10020B8
:100DA00010E00135E36832689B1AAB42D2DD2200C5
:100DB000012301990098089F1932B8470130F0D1FA
:100DC00001204042FEBD3020E1184331087021006F
:100DD0005A1C45310978A218433202331170C1E719
:100DE0002200012301990098089F1A32B847013068
:100DF000E6D00136D1E70000F0B58BB006920A00CC
:100E000043320793059004920A7E0C00109B782AC7
:100E100009D8622A0BD8002A00D1C8E08149039181
:100E2000582A00D19CE0250042352A7022E01000AB
:100E300063381528F7D8FFF743F916001F00F6FFAF
:100E4000F6FFF6FFF6FF1F00F6FFF6FFF6FFF6FFD0
:100E5000AD004F008C00F6FFF6FFBE00F6FF4F001E
:100E6000F6FFF6FF900025001A684235111D196043
:100E700013682B700123ACE018680968021D0D0689
:100E80001FD506681A60674A0A2761680392002E18
:100E900035DA23002D2043331870A160002916DABB
:100EA0000A2776420392049D30003900FFF798F933
:100EB000039B013D5B5C2B70330006009F42F3D91E
:100EC0002AE006681A604906DDD536B2DBE7042160
:100ED00023688B432360E3E70868196840C9050667
:100EE00002D4400600D5B6B219604E4B0A270393D0
:100EF0006F2A00D1023F2300002243331A70636837
:100F0000A360002BCFDB042122688A432260002EDD
:100F1000C9D1049D002BC6D1082F09D12368DB0756
:100F200006D5626823699A4202DC3023013D2B70AA
:100F3000049B5B1B2361079B210000930598069B84
:100F400009AAFFF7E9FE013048D1012040420BB069
:100F5000F0BD202209680A432260782232490391B9
:100F6000210045310A701968226840C9100602D470
:100F7000500600D5B6B21960D30702D5202313431B
:100F80002360002E01D01027B5E720222368934369
:100F90002360F8E71A680D68101D49691860136826
:100FA0002E0601D5196002E06D06FBD519800023DD
:100FB000049D2361BFE71A68111D1960156800219F
:100FC0002800626800F096F8002801D0401B60609D
:100FD000636823610023049A1370ACE72A00236935
:100FE00006990598079DA8470130AED023689B0756
:100FF00015D4099BE0689842A9DA1800A7E72200F7
:10100000012306990598079E1932B04701309CD0FC
:101010000135E368099A9B1AAB42F0DCE9E7002549
:10102000F7E7C046441900085519000810B50248F2
:10103000FFF776FC10BDC046A401002010B50248A1
:10104000FFF76FFC10BDC046A4010020F7B50600F5
:101050000C001500002905D11100FFF7E3FD040085
:101060002000FEBD002A03D100F058F80024F7E765
:1010700000F09EF80700854202D84308AB42EFD348
:1010800029003000FFF7CEFD01900028EED02A00A5
:10109000BD4200D93A002100019800F036F8210045
:1010A000300000F03BF8019CDAE710B5884206D822
:1010B00000239A4208D0CC5CC4540133F9E78B1862
:1010C0009842F5D2013A00D210BD8B5C8354F9E707
:1010D000002370B5064D040008002B6000F070F886
:1010E000431C03D12B68002B00D0236070BDC04689
:1010F000B0010020C9B28218904201D1002070478F
:1011000003788B42FBD00130F6E7002310B59A42FA
:1011100000D110BDCC5CC4540133F8E770B50500B4
:101120000C1E10D0043C2368002B00DAE4182800C1
:10113000FFF77CFF1D4A1368002B05D16360146024
:101140002800FFF77BFF70BDA34208D92068211853
:101150008B42F3D119685B6809182160EEE71A0029
:101160005B68002B01D0A342F9D911685018A04246
:101170000BD120680918501811608342E0D118681B
:101180005B68411811605360DAE7A04202D90C2372
:101190002B60D5E7206821188B4203D119685B6862
:1011A0000918216063605460CAE7C046AC010020A2
:1011B0000B1F1B68181F002B01DA0B58C018704753
:1011C000044A03001068002802D0C3181360704757
:1011D0000148FAE7B4010020B8010020F0B55746F5
:1011E0004E464546DE46E0B583B0009001910C03C3
:1011F0004F00CE0F610A009C1D03640F0C43009941
:1012000000920193C80059004B0D9946009A019B2A
:101210006D0AD90F530F2B439A46009B7F0DDA00BE
:1012200094464A46B046BA1A8E4200D1B0E0002A2F
:1012300000DC78E04946002900D1E9E0C8498F4246
:1012400000D193E10125382A16DC80215346090498
:101250000B439A461F2A00DDE5E1202155468B1AF3
:1012600061469D40D1400D43614699404B1E9941D6
:101270005346D3400D43E41A451BA84280414042E7
:10128000241A230200D40EE16402640A002C00D167
:1012900038E12000FFF794F80300083B20212800E4
:1012A000CA1AD0409C4002009D4022439F4200DD6C
:1012B00071E1D81B0130091A2C008D40C4406B1E0F
:1012C0009D411300C2408B402543002714001D435D
:1012D0006B0709D00F232B40042B05D02B1DAB42ED
:1012E000AD416D4264191D00230200D42CE19C4ADB
:1012F0000137974200D1D2E046469A49EA08214098
:1013000048074D027C0502432D0B640D24052C4338
:10131000F60734431000210003B0F0BCBB46B246D0
:10132000A946A046F0BD002A00D184E04A46D21B5F
:10133000002F00D06BE12500054300D125E1561EAA
:10134000012A00D136E2864DAA4200D1F6E10125FC
:10135000382E12DC32001F2A00DDFEE12026250097
:10136000B61A07005346B040D440B540D740461E99
:10137000B0411B1B9A463D4305436246551BAC4595
:101380009241534652420E004F4688469C1A78E7D7
:10139000002A00DC8DE04946002974D1614653469D
:1013A000194300D1F4E0511E012A00D191E16C4DA6
:1013B000AA4200D1DAE00125382914DC0A001F2AEC
:1013C00000DDA2E120215346891A8B401D006346AF
:1013D000D3401D4363468B4019004B1E9941534631
:1013E000D3400D43E4182D18854280414042241813
:1013F000230258D55A4B01379F4250D00121594BF7
:101400006A081C4029400A43E507154364085FE762
:1014100061465346194300D1BAE0511E012A00D15A
:1014200064E14F4DAA4200D16AE10125382900DD6F
:1014300022E70A000EE74C4A7D1C154200D0CEE0A0
:1014400022000243002F00D037E1002A00D1BDE185
:10145000624653461A4300D16BE16346C51A5346B0
:10146000E21AA8429B415B42D31A1A0200D4F7E168
:1014700063461D1AAC459241534652421C1B0E0056
:101480008846A41A24E736498F426FD00125382AAE
:10149000A9DC8021534609040B439A468FE73C00A0
:1014A0000025002232E707232B40002B00D011E754
:1014B00092E0002A73D04A46D21B002F00D1C6E02A
:1014C0002749894500D141E10125382A12DC8021D4
:1014D00009040C431F2A00DDA7E120212500891AF9
:1014E000070088408D40D740411E8841D4403D438D
:1014F0000543A2446544654592415242524414005A
:101500004F4675E72800FEF75BFF030018331F2BDB
:1015100000DCC3E62A00083882409F4200DDA7E0D5
:10152000DB1B581C1F2800DCA8E115001F3BDD4019
:10153000202805D040231B1A9A40531E9A41154378
:10154000072300272B40B0E7ED08054B62072A432D
:10155000E4089F420ED02403250B7C05640DD5E6DC
:10156000FF070000FFFF7FFFFE070000C0086207C3
:101570000243E4081300234300D183E180252D03B7
:1015800025432D03C14C2D0BC0E6604654460E008A
:101590001700C508D9E7BE4CFF1A144098E6BD4AAB
:1015A000791C11426AD122000243002F00D0E3E0EF
:1015B000002A00D132E1624653461A4300D1B8E016
:1015C0006346C51885428041544440422418230292
:1015D00002D50F00AE4B1C403A002800D8E7624607
:1015E000851AA8429241534652429146E31A1A0084
:1015F0004B46D21A130091461A0253D44A464C461F
:101600002A4300D042E60026002400257EE69F4DB6
:10161000A94500D192E00125382A00DDADE68025FC
:101620002D042C4397E6110055462039CD40A9469C
:10163000202A06D0402153468A1A934062461A4314
:10164000944665466B1E9D414B461D4314E62100A2
:10165000014300D1C7E0511E012A00D1F8E08B4DB3
:10166000AA4273D00125382900DD43E70A0031E79B
:10167000874CFF1A14406207E4086CE7834A9142E2
:1016800000D1E1E06346C21882428041230040421B
:1016900053441B18DD075C080723520815430F004D
:1016A0002B4002E763461D1AAC4592415346524215
:1016B0001C1B0E008846A41AE8E5002A00D095E01D
:1016C000624653461A4300D0D0E08024002624030B
:1016D00054E76346C518854280415444404224186B
:1016E0000127230200D4DEE6022787E66346C51AF7
:1016F000A842804153464042E41A0127241AC0E51B
:101700006307C2081A43E40834E71100534620393E
:10171000CB409946202A06D0402153468A1A93404E
:1017200062461A43944665466B1E9D414B461D43D7
:1017300059E66207C0080243E4080CE76346DA088A
:10174000534658070E000243DC0813E76346DA08E5
:10175000534658070243DC080CE715002600203DDD
:10176000EE40202A03D04025AA1A94402043421E6E
:1017700090410500354300E6002AE7D06246534613
:10178000C0081A4300D1F2E6620710438022E40841
:101790001203144208D0D908114205D16346D80873
:1017A00053460C005B071843430FC000C2085B0799
:1017B0001A43DFE663461D1AAC4592415346524236
:1017C0001C1B0E008846A41A01375AE56246534690
:1017D0001A4300D117E76346DA08534658070E004C
:1017E0000243DC08B7E660465446D1E662465346FB
:1017F000C0081A4300D1BAE6620710438022E40809
:1018000012031442D0D0DD081542CDD16346D8086A
:1018100053465B070E002C001843C5E76346DA0801
:10182000534658070243DC0895E61100270020398B
:10183000CF40202A03D040218A1A94402043421EE0
:10184000904105003D4355E60C00002500225DE572
:10185000604460459241544452420500A4183FE759
:101860001A001C002A4300D0B6E6CCE658076346AF
:10187000DA0853460E000243DC087BE620210025EF
:10188000091A1EE500220025004C3FE5FF07000075
:10189000FFFF7FFFFE0700000B00020070B5164D32
:1018A0000C0382B04900002000920193240B490DE3
:1018B000DE0FA94204DD1148814203DD104BF01810
:1018C00002B070BD8020400320430E4C641A1F2CD0
:1018D00008DD0D4B5B1AD84003005842002EEFD1B3
:1018E0001800EDE7094B009A9C46030061448B40C9
:1018F000E2401343F1E7C046FE0300001D04000070
:10190000FFFFFF7F3304000013040000EDFBFFFF27
:10191000F8B5C046F8BC08BC9E467047F8B5C0464E
:08192000F8BC08BC9E467047AC
:1019280048656C6C6F000000256600232D302B2065
:1019380000686C4C006566674546470030313233B5
:101948003435363738394142434445460030313220
:1019580033343536373839616263646566000000B0
:04196800250400084A
:04196C00FD0300086F
:1019700004000020000000006C000020D4000020C3
:101980003C010020000000000000000000000000FA
:101990000000000000000000000000000000000047
:1019A0000000000000000000000000000000000037
:1019B0000000000000000000000000000000000027
:0400000508000845A2
:00000001FF
