:020000040800F2
:1000000000200020510900084509000847090008A0
:1000100000000000000000000000000000000000E0
:100020000000000000000000000000004909000876
:1000300000000000000000004B0900084D09000806
:10004000A1090008A1090008A1090008A1090008E8
:10005000A1090008A1090008A1090008A1090008D8
:10006000A1090008A1090008A1090008A1090008C8
:10007000A1090008A1090008A1090008A1090008B8
:10008000A1090008A109000800000000FD05000802
:10009000A1090008A1090008A1090008A109000898
:1000A000A1090008A1090008A1090008A109000888
:1000B000A109000800000000A109000800000000DC
:1000C000002243088B4274D303098B425FD3030A97
:1000D0008B4244D3030B8B4228D3030C8B420DD3AA
:1000E000FF22090212BA030C8B4202D31212090238
:1000F00065D0030B8B4219D300E0090AC30B8B4276
:1001000001D3CB03C01A5241830B8B4201D38B0323
:10011000C01A5241430B8B4201D34B03C01A5241C8
:10012000030B8B4201D30B03C01A5241C30A8B420B
:1001300001D3CB02C01A5241830A8B4201D38B02F6
:10014000C01A5241430A8B4201D34B02C01A52419A
:10015000030A8B4201D30B02C01A5241CDD2C3090C
:100160008B4201D3CB01C01A524183098B4201D388
:100170008B01C01A524143098B4201D34B01C01A73
:10018000524103098B4201D30B01C01A5241C308EB
:100190008B4201D3CB00C01A524183088B4201D35A
:1001A0008B00C01A524143088B4201D34B00C01A46
:1001B0005241411A00D20146524110467047FFE7B2
:1001C00001B5002000F006F802BDC0460029F7D0B6
:1001D00076E770477047C04610B5064C2378002B71
:1001E00007D1054B002B02D0044800E000BF0123DB
:1001F000237010BD0400002000000000EC0900087E
:10020000044B10B5002B03D00349044800E000BFA5
:1002100010BDC0460000000008000020EC090008E6
:1002200082B0430018180023019304E0C046C04682
:10023000019B01330193019B8342F7D302B07047C6
:1002400070B51420FFF7ECFF0A4CA36980252D023E
:100250002B43A3611420FFF7E3FFA26980231B0651
:100260001343A3611420FFF7DBFFA3691D43A561BE
:1002700070BDC0460008004810B50400454A9169A9
:100280008023DB010B43936143B2002B46DB9022BA
:10029000D205916980231B060B439361630645D504
:1002A0009022D205916980235B010B439361A306E1
:1002B00044D5394A916980239B000B439361E3063F
:1002C00043D5354A916980235B000B439361FFF767
:1002D000B7FF230740D59022D205916980231B02E6
:1002E0000B43936163073FD59022D2059169802328
:1002F0005B010B439361A3073ED5274A9169802395
:100300009B000B439361E4073DD5234A9169802309
:100310005B000B439361FFF793FF10BD9022D20562
:10032000916980231B020B439361B7E79022D205AA
:10033000916980235B050B439361B8E7164A916985
:1003400080239B040B439361B9E7134A916980238F
:100350005B040B439361BAE79022D2059169802335
:100360001B060B439361BDE79022D2059169802360
:100370005B050B439361BEE7074A916980239B04A9
:100380000B439361BFE7044A916980235B040B43ED
:100390009361C0E7000800480004004870B50500FC
:1003A000002403E0FFF768FF0134E4B2285D002871
:1003B000F8D170BD10B50400474A91698023DB0570
:1003C0000B43936143B2002B49DB9022D205916924
:1003D00080231B060B439361630648D59022D20508
:1003E000916980235B010B439361A30647D53B4A88
:1003F000916980239B000B439361E30646D5374AFE
:10040000916980235B000B439361FFF719FF23077A
:1004100043D59022D205916980231B020B4393613F
:10042000630742D59022D205916980235B010B437B
:100430009361A30741D5294A916980239B000B430F
:100440009361E40740D5254A916980235B000B4303
:100450009361FFF7F5FE2248FFF7E2FE10BD902200
:10046000D205916980231B020B439361B4E790226C
:10047000D205916980235B050B439361B5E7174A69
:10048000916980239B040B439361B6E7134A9169FA
:1004900080235B040B439361B7E79022D2059169F7
:1004A00080231B060B439361BAE79022D205916922
:1004B00080235B050B439361BBE7084A9169802366
:1004C0009B040B439361BCE7044A916980235B045E
:1004D0000B439361BDE7C046000800480004004894
:1004E000B80B000010B51B4B5969802292020A43D9
:1004F0005A6159698022D2020A435A61596980229D
:1005000012030A435A619022D20511688223DB0547
:100510000B431360104A1168A023DB020B431360E6
:100520000E4A1168A023DB050B4313600C48FFF74C
:1005300077FE3320FFF73EFF3220FFF73BFF0C2012
:10054000FFF738FF2820FFF735FF0120FFF732FFC4
:1005500010BDC046001002400004004800080048DA
:10056000307500000B4AD16980235B000B43D361D7
:10057000094B9A6A08210A439A62D96A074A0A43D0
:10058000DA62DA6801210A43DA601A680A431A60FB
:100590007047C04600100240002000405FEA0000A3
:1005A00010B5144A516980239B020B435361902379
:1005B000DB051968FF208143196018688021090252
:1005C000014319605968802001435960D9682B386C
:1005D0000143D960D968AA24A143D9605169802315
:1005E000DB020B435361044B1A6802431A6000227A
:1005F0005A6110BD0010024000040048104A1369FF
:1006000001218B4313610F4A13780A33DBB2137055
:10061000642B04D00C4B1B783C2B08D07047130084
:1006200000221A70084A137801331370F2E7064B60
:1006300000221A70054A137801331370EEE7C046A2
:10064000002000402300002024000020250000207E
:10065000F0B5D6464F464646C0B506000D00914659
:100660001C000A21FFF72CFDC3B298460A21300076
:10067000FFF7ACFDCFB20A212800FFF721FDC6B27B
:100680000A212800FFF7A2FDCBB29A460A2148466C
:10069000FFF716FDC5B20A214846FFF797FDC9B21C
:1006A000434630332370303767703A23A3703036B7
:1006B000E6705346303323712E2363713035A571B4
:1006C0003031E17100232372E0BCBA46B146A8463E
:1006D000F0BD000010B5484B1B78002B0BD1474BE9
:1006E0001B78002B07D1464B1B78002B03D1454BC1
:1006F0001B78002B30D1404B1B78002B0BD03F4B8D
:100700001B78002B07D13E4B1B78002B03D13D4BB0
:100710001B78002B2DD0384B1B78002B0BD0374B80
:100720001B78002B07D0364B1B78002B03D1354BA1
:100730001B78002B34D0304B1B78002B0BD02F4B69
:100740001B78002B07D12E4B1B78002B03D02D4B91
:100750001B78002B39D010BD2B48FFF71FFEC0209F
:10076000FFF728FE2948FFF719FE294B08225A6196
:10077000C1E72848FFF712FEC020FFF71BFE264CFA
:10078000264B1A78264B1978264B18782300FFF74A
:100790005FFF2000FFF702FE1D4B01225A61BAE7FE
:1007A0001C48FFF7FBFDC020FFF704FE1A4C1E4B50
:1007B0009A78597818782300FFF74AFF2000FFF74E
:1007C000EDFD134B02225A61B5E71248FFF7E6FD33
:1007D000C020FFF7EFFD104C104B1A78104B197822
:1007E000104B18782300FFF733FF2000FFF7D6FDEA
:1007F000074B04225A61AEE72800002027000020A2
:100800002600002000000020040A0008100A00084A
:1008100000040048200A00082C00002023000020CB
:100820002400002025000020200000209023DB056C
:100830001B69DA0713D4304A012111702F490022B5
:100840000A702F490A702F490A709021C9054A6918
:10085000802002434A612C4A8021090311609A07D3
:1008600019D4254A01211170244A1170244A00210B
:100870001170244A1170254A2549097811702549BB
:10088000097851702449097891709021C9054A6905
:10089000802082434A615A0712D4174A01201070FF
:1008A000164A00211170164A1070164A1170164926
:1008B0008022802000038850BFF34F8FBFF36F8FDB
:1008C0001B0718D40C4A002313700C4A13700C4AEF
:1008D00013700C4A012111700B4980228020000303
:1008E0008850BFF34F8FBFF36F8F094A1370094AC7
:1008F0001370094A13707047280000202700002059
:10090000260000200000002000E100E02000002080
:1009100025000020240000202300002010B5FFF750
:100920003FFEFFF71FFEFFF7DDFDFFF77FFF012012
:10093000FFF740FDFFF7CEFE0148FFF771FCF4E73B
:1009400010270000FEE7FEE77047704770477047CA
:100950000D488546FFF7FBFF0C480D490D4A002363
:1009600002E0D458C4500433C4188C42F9D30A4A64
:100970000A4C002301E013600432A242FBD300F0D2
:1009800011F8FFF7CBFFFEE7002000200000002059
:1009900004000020300A0008040000203C00002071
:1009A000FEE7000070B500260C4C0D4D641BA41032
:1009B000A64209D1002600F019F80A4C0A4D641B22
:1009C000A410A64205D170BDB300EB58984701367C
:1009D000EEE7B300EB5898470136F2E7280A000823
:1009E000280A00082C0A0008280A0008F8B5C046A2
:1009F000F8BC08BC9E467047F8B5C046F8BC08BCB9
:040A00009E46704757
:100A040053746F707761746368000000507265738B
:100A140073205357302E2E2E0000000054696D654C
:040A240000000000CE
:040A280001020008BF
:040A2C00D9010008E4
:040A300001000000C1
:040000050800095195
:00000001FF
