:020000040800F2
:1000000000200020B1050008A5050008A70500088C
:1000100000000000000000000000000000000000E0
:10002000000000000000000000000000A90500081A
:100030000000000000000000AB050008AD0500084E
:100040000106000801060008010600080106000874
:100050000106000801060008010600080106000864
:100060000106000801060008010600080106000854
:100070000106000801060008010600080106000844
:1000800001060008010600080000000051050008F4
:100090000106000801060008010600080106000824
:1000A0000106000801060008010600080106000814
:1000B0000106000800000000010600080000000022
:1000C000002243088B4274D303098B425FD3030A97
:1000D0008B4244D3030B8B4228D3030C8B420DD3AA
:1000E000FF22090212BA030C8B4202D31212090238
:1000F00065D0030B8B4219D300E0090AC30B8B4276
:1001000001D3CB03C01A5241830B8B4201D38B0323
:10011000C01A5241430B8B4201D34B03C01A5241C8
:10012000030B8B4201D30B03C01A5241C30A8B420B
:1001300001D3CB02C01A5241830A8B4201D38B02F6
:10014000C01A5241430A8B4201D34B02C01A52419A
:10015000030A8B4201D30B02C01A5241CDD2C3090C
:100160008B4201D3CB01C01A524183098B4201D388
:100170008B01C01A524143098B4201D34B01C01A73
:10018000524103098B4201D30B01C01A5241C308EB
:100190008B4201D3CB00C01A524183088B4201D35A
:1001A0008B00C01A524143088B4201D34B00C01A46
:1001B0005241411A00D20146524110467047FFE7B2
:1001C00001B5002000F006F802BDC0460029F7D0B6
:1001D00076E770477047C0468446100062468C46FA
:1001E0001900634600E0C0461FB501F0EFF9002892
:1001F00001D40021C8421FBD10B501F02FF94042C3
:10020000013010BD10B501F0E1F9002801DB00203C
:1002100010BD012010BDC04610B501F0D7F900286F
:1002200001DD002010BD012010BDC04610B501F059
:1002300059F9002801DC002010BD012010BDC04686
:1002400010B501F04FF9002801DA002010BD01209F
:1002500010BDC0461C2101231B04984201D3000C91
:1002600010391B0A984201D3000A08391B09984229
:1002700001D30009043902A2105C40187047C0463F
:10028000040302020101010100000000000000005F
:1002900010B5064C2378002B07D1054B002B02D05C
:1002A000044800E000BF0123237010BD00000020BF
:1002B000000000002C1E0008044B10B5002B03D0DA
:1002C0000349044800E000BF10BDC0460000000024
:1002D000040000202C1E000882B0430018180023E0
:1002E000019304E0C046C046019B01330193019B8A
:1002F0008342F7D302B0704770B51420FFF7ECFFCC
:100300000A4CA36980252D022B43A3611420FFF71B
:10031000E3FFA26980231B061343A3611420FFF7A8
:10032000DBFFA3691D43A56170BDC04600080048FE
:1003300010B50400474A91698023DB050B439361A4
:1003400043B2002B49DB9022D205916980231B0622
:100350000B439361630648D59022D20591698023AF
:100360005B010B439361A30647D53B4A9169802308
:100370009B000B439361E30646D5374A916980237E
:100380005B000B439361FFF7B7FF230743D5902230
:10039000D205916980231B020B439361630742D509
:1003A0009022D205916980235B010B439361A307DF
:1003B00041D5294A916980239B000B439361E4074F
:1003C00040D5254A916980235B000B439361FFF779
:1003D00093FF2248FFF780FF10BD9022D20591695C
:1003E00080231B020B439361B4E79022D2059169ED
:1003F00080235B050B439361B5E7174A916980231E
:100400009B040B439361B6E7134A916980235B0415
:100410000B439361B7E79022D205916980231B06B5
:100420000B439361BAE79022D205916980235B0563
:100430000B439361BBE7084A916980239B040B43FC
:100440009361BCE7044A916980235B040B43936189
:10045000BDE7C0460008004800040048B80B000093
:1004600010B51B4B5969802292020A435A6159699F
:100470008022D2020A435A615969802212030A4338
:100480005A619022D20511688223DB050B43136069
:10049000104A1168A023DB020B4313600E4A116857
:1004A000A023DB050B4313600C48FFF715FF332037
:1004B000FFF73EFF3220FFF73BFF0C20FFF738FF2E
:1004C0002820FFF735FF0120FFF732FF10BDC0469F
:1004D0000010024000040048000800483075000089
:1004E00010B5002200230020114900F09BFC00F011
:1004F000ADF800220F4B01F0DBF801F05BFC0E4A77
:10050000D16980235B000B43D3610C4B9A6A9A62DA
:10051000DA6A1043D862DA6801210A43DA601A689D
:100520000A431A60064B802212031A6010BDC046AF
:100530000070E7400000F03F001002400020004043
:1005400000E100E010B5FFF78BFFFFF7C9FFFEE702
:10055000104A136901218B4313610F4A1378013349
:10056000DBB21370642B04D00C4B1B783C2B08D0EF
:100570007047130000221A70084A13780133137071
:10058000F2E7064B00221A70054A13780133137004
:10059000EEE7C046002000401C0000201D000020A7
:1005A0001E000020FEE7FEE7704770477047704767
:1005B0000D488546FFF7FBFF0C480D490D4A002307
:1005C00002E0D458C4500433C4188C42F9D30A4A08
:1005D0000A4C002301E013600432A242FBD300F076
:1005E00011F8FFF7AFFFFEE7002000200000002019
:1005F000000000208C1E00080000002020000020C9
:10060000FEE7000070B500260C4C0D4D641BA410D5
:10061000A64209D1002601F009FC0A4C0A4D641BD0
:10062000A410A64205D170BDB300EB58984701361F
:10063000EEE7B300EB5898470136F2E7841E000856
:10064000841E0008881E0008841E0008F0B54F466E
:100650004646D6463E4A4B005B0DC0B59E18040088
:100660000D000F0089468046132E35DC002E23DB5B
:10067000384B33419A460B0052461340034316D081
:10068000354A364B00F070F800220023FFF7CEFD0C
:1006900000280AD0002D03DA80235B0333419944FC
:1006A00053464F469F430023984639004046E0BCDE
:1006B000BA46B146A846F0BD274A284B00F054F888
:1006C00000220023FFF7B2FD0028EED0002D28DB2A
:1006D000002300279846E8E7332E08DD8023DB005F
:1006E0009E42E4D102000B0000F03EF8DFE71C4A16
:1006F0009446012263445242DA4091461042D6D0D9
:10070000154A164B00F030F800220023FFF78EFD4B
:100710000028CAD02300002D0BDB4A46934398469D
:10072000C3E76B005B08234398460DD180273F0643
:10073000BBE7142E06D034210122891B8A40A3185E
:10074000A342EAD26F1CE8E70023064F9846ACE7C5
:1007500001FCFFFFFFFF0F009C7500883CE4377E23
:10076000EDFBFFFF0000F0BFF0B557464E46454693
:10077000DE46E0B583B0009001910C034F00CE0F30
:10078000610A009C1D03640F0C43009900920193C1
:10079000C80059004B0D9946009A019B6D0AD90F6C
:1007A000530F2B439A46009B7F0DDA0094464A462E
:1007B000B046BA1A8E4200D1B0E0002A00DC78E0E0
:1007C0004946002900D1E9E0C8498F4200D193E1B0
:1007D0000125382A16DC8021534609040B439A462A
:1007E0001F2A00DDE5E1202155468B1A61469D4018
:1007F000D1400D43614699404B1E99415346D34029
:100800000D43E41A451BA84280414042241A2302AA
:1008100000D40EE16402640A002C00D138E120000B
:10082000FFF718FD0300083B20212800CA1AD0401A
:100830009C4002009D4022439F4200DD71E1D81B95
:100840000130091A2C008D40C4406B1E9D411300DD
:10085000C2408B402543002714001D436B0709D07D
:100860000F232B40042B05D02B1DAB42AD416D4215
:1008700064191D00230200D42CE19C4A01379742E1
:1008800000D1D2E046469A49EA08214048074D0285
:100890007C0502432D0B640D24052C43F6073443DD
:1008A0001000210003B0F0BCBB46B246A946A046EA
:1008B000F0BD002A00D184E04A46D21B002F00D0B0
:1008C0006BE12500054300D125E1561E012A00D128
:1008D00036E2864DAA4200D1F6E10125382E12DC1F
:1008E00032001F2A00DDFEE120262500B61A07008F
:1008F0005346B040D440B540D740461EB0411B1BC4
:100900009A463D4305436246551BAC4592415346CA
:1009100052420E004F4688469C1A78E7002A00DCB7
:100920008DE04946002974D161465346194300D1F0
:10093000F4E0511E012A00D191E16C4DAA4200D190
:10094000DAE00125382914DC0A001F2A00DDA2E1C3
:1009500020215346891A8B401D006346D3401D4316
:1009600063468B4019004B1E99415346D3400D43BB
:10097000E4182D188542804140422418230258D59E
:100980005A4B01379F4250D00121594B6A081C40F5
:1009900029400A43E507154364085FE7614653466B
:1009A000194300D1BAE0511E012A00D164E14F4D34
:1009B000AA4200D16AE10125382900DD22E70A00B8
:1009C0000EE74C4A7D1C154200D0CEE022000243C7
:1009D000002F00D037E1002A00D1BDE16246534626
:1009E0001A4300D16BE16346C51A5346E21AA84286
:1009F0009B415B42D31A1A0200D4F7E163461D1AE9
:100A0000AC459241534652421C1B0E008846A41A24
:100A100024E736498F426FD00125382AA9DC80218E
:100A2000534609040B439A468FE73C0000250022F9
:100A300032E707232B40002B00D011E792E0002A79
:100A400073D04A46D21B002F00D1C6E02749894502
:100A500000D141E10125382A12DC802109040C4330
:100A60001F2A00DDA7E120212500891A0700884000
:100A70008D40D740411E8841D4403D430543A244A8
:100A80006544654592415242524414004F4675E711
:100A90002800FFF7DFFB030018331F2B00DCC3E641
:100AA0002A00083882409F4200DDA7E0DB1B581C6B
:100AB0001F2800DCA8E115001F3BDD40202805D0E1
:100AC00040231B1A9A40531E9A41154307230027BF
:100AD0002B40B0E7ED08054B62072A43E4089F422C
:100AE0000ED02403250B7C05640DD5E6FF0700001E
:100AF000FFFF7FFFFE070000C00862070243E40813
:100B00001300234300D183E180252D0325432D03CA
:100B1000C14C2D0BC0E6604654460E001700C508B8
:100B2000D9E7BE4CFF1A144098E6BD4A791C114221
:100B30006AD122000243002F00D0E3E0002A00D156
:100B400032E1624653461A4300D1B8E06346C51805
:100B500085428041544440422418230202D50F00AC
:100B6000AE4B1C403A002800D8E76246851AA842DE
:100B70009241534652429146E31A1A004B46D21A0A
:100B8000130091461A0253D44A464C462A4300D0D9
:100B900042E60026002400257EE69F4DA94500D1AF
:100BA00092E00125382A00DDADE680252D042C4396
:100BB00097E6110055462039CD40A946202A06D097
:100BC000402153468A1A934062461A43944665462A
:100BD0006B1E9D414B461D4314E62100014300D18D
:100BE000C7E0511E012A00D1F8E08B4DAA4273D014
:100BF0000125382900DD43E70A0031E7874CFF1A59
:100C000014406207E4086CE7834A914200D1E1E0B6
:100C10006346C218824280412300404253441B185D
:100C2000DD075C080723520815430F002B4002E73D
:100C300063461D1AAC459241534652421C1B0E009E
:100C40008846A41AE8E5002A00D095E0624653469B
:100C50001A4300D0D0E080240026240354E76346E2
:100C6000C51885428041544440422418012723027C
:100C700000D4DEE6022787E66346C51AA842804113
:100C800053464042E41A0127241AC0E56307C2080C
:100C90001A43E40834E7110053462039CB40994603
:100CA000202A06D0402153468A1A934062461A43AE
:100CB000944665466B1E9D414B461D4359E66207AF
:100CC000C0080243E4080CE76346DA0853465807B5
:100CD0000E000243DC0813E76346DA085346580760
:100CE0000243DC080CE715002600203DEE40202AD8
:100CF00003D04025AA1A94402043421E904105008B
:100D0000354300E6002AE7D062465346C0081A433E
:100D100000D1F2E6620710438022E4081203144275
:100D200008D0D908114205D16346D80853460C00B3
:100D30005B071843430FC000C2085B071A43DFE696
:100D400063461D1AAC459241534652421C1B0E008D
:100D50008846A41A01375AE5624653461A4300D121
:100D600017E76346DA08534658070E000243DC08CB
:100D7000B7E660465446D1E662465346C0081A4379
:100D800000D1BAE6620710438022E408120314423D
:100D9000D0D0DD081542CDD16346D80853465B0755
:100DA0000E002C001843C5E76346DA08534658077F
:100DB0000243DC0895E6110027002039CF40202AA5
:100DC00003D040218A1A94402043421E90410500DE
:100DD0003D4355E60C00002500225DE5604460457A
:100DE0009241544452420500A4183FE71A001C00E7
:100DF0002A4300D0B6E6CCE658076346DA085346E5
:100E00000E000243DC087BE620210025091A1EE5BE
:100E100000220025004C3FE5FF070000FFFF7FFF99
:100E2000FE070000F0B5DE46454657464E46E0B5A3
:100E300087B0009201930B031B0B9B46CA0F4B001C
:100E4000040080465B0D029200D16AE1D44A9342CD
:100E500000D18CE15946420FC9000A4380210904A0
:100E60001143C2009046CF4A894692469A440023D5
:100E700000240393009E019F3B031B0B9B467B00BA
:100E800030005B0DFD0F002B00D128E1C44A9342D6
:100E900000D177E15946720FC9000A438021090445
:100EA00011438B46BF49F2008C4651466344CB1A2E
:100EB0009A460023029E6E400F2C27D8BA49A40000
:100EC00009598F46CB464246029E039B022B16D001
:100ED000032B00D1A9E2012B00D0DFE00022002388
:100EE000002490461B052343F60733434046190070
:100EF00007B0F0BCBB46B246A946A046F0BD0022F2
:100F000000249046A64BEDE72E00DFE7CB4500D24C
:100F1000D8E100D1D3E101235B429C4644464846D8
:100F20000027E2445B46150E1B021D43190C2B04DF
:100F3000120200951D0C914602910395FFF746F9A8
:100F400002006A430B04210C804619438A4209D9E6
:100F5000009D0123AC465B4261449C46E0448D42C7
:100F600000D8FFE1881A0299FFF730F9039A2404A8
:100F700042430904240C03000C43A24206D9009901
:100F8000013B8C466444A14200D8E5E1A01A4246E8
:100F900012041A4393464B4659461B0C1D000493FA
:100FA0000B0449460904090C0C001B0C5C43120C91
:100FB0006B43884651436A43250CAC465B18634437
:100FC000994203D9802149028C466244190C2404B9
:100FD0001B04240C8A181C19904202D316D1A74274
:100FE00014D25B46009D013B4F4405934F459B4106
:100FF000AC465B426344C018854200D3A5E18242FF
:1010000000D9F9E100D1F4E1059B9B463C1BA742C6
:10101000BF41009D801A7F42C01B854200D1D4E1B0
:101020000299FFF7D3F8039A0B044243210C0700FF
:1010300019438A4200D97CE1881A0299FFF7C6F861
:10104000039A240442430904240C03000C43A242E3
:1010500000D961E14146A41A3A041A43049D1304DD
:101060001B0C594347466B439C46100C47430B0CE3
:10107000BC44634468439F4203D980256D02AC465B
:1010800060441F0C09041B04090C3F185B18BC4288
:1010900000D206E100D101E101231A43434B53443E
:1010A000002B00DCB2E0510700D09BE15946C9019A
:1010B00006D559463E4B194080238B46DB005344EE
:1010C0003C498B4200DD1AE75946D20849071143D3
:1010D0005A465B0554028846240B5B0D02E75A46CC
:1010E000009B1A4300D182E05B46002B00D104E153
:1010F0005846FFF7AFF8020003000B3A1D27009E89
:10110000BA1A19005846D6400839884032000243BE
:101110009346009A8A40284953448A469A440023B9
:10112000C8E65B46034399465AD05B46002B00D184
:10113000D1E05846FFF78EF80B235B429C46020035
:10114000844466461D239B1B260011005846DE4042
:101150000839884033000343994623008B40984662
:10116000164B00249B1A9A460023039382E65A46A4
:10117000024391462ED100229A460223904608242B
:10118000039377E65A46009B1A431BD102231C4364
:101190000B4B9C460023E2449B4602338AE6C04642
:1011A000FF07000001FCFFFF441E0008FF030000D2
:1011B000FFFFFFFEFE070000F30300000DFCFFFF32
:1011C00001F8FFFF03231C439F4B32009C4603237F
:1011D000E2446FE69A460323D9460C24039349E67A
:1011E000002398469A4601330424039342E60123E0
:1011F0001C4300239B4601335CE600238024984671
:101200000026924B24036DE6012252420121C91AA5
:10121000382900DD62E61F2900DCABE01F204042D8
:10122000C31A5846D8400300202904D0584688499C
:10123000514488400243511E8A411A430723190032
:101240000024114013420CD00F231340042B00D173
:10125000F8E0111D91429B410A005B4259075B0275
:101260001C0BD2080A43904600233BE680244B46E1
:101270002403234209D05B46234206D11C432403A6
:101280002E009046714B240B2CE680244B46240301
:101290001C432403029E6D4B240B23E6002B00D13C
:1012A000FCE60098511E84466444844200D284E0E7
:1012B000BC4200D2ADE000D1C0E00A00ECE64245FD
:1012C00000D928E64B46DC07580843465B081C4318
:1012D0004346DF0726E6FEF7BDFF15239C46844400
:1012E0000200634620321C2B00DC2AE7230008386A
:1012F000834099460023984632E7FEF7ABFF020091
:101300000300153220331C2A00DCF7E60099083868
:10131000814000228B46FEE60099013B8C466444E6
:10132000A14200D996E6A24200D893E6831E644407
:1013300090E6AC466144013F8D4200D97CE68A428A
:1013400000D879E6871E614476E6854200D05BE6E8
:10135000B94500D958E652E6A24200D816E6831EE7
:10136000644413E68A4200D8FCE5AC46831E9846E6
:101370006144F7E537481400504482405B4617004B
:101380008340CC407A1E974123433B431A005B467F
:10139000CB40510709D00F211140042905D0111D60
:1013A0009142924152429B180A00190200D455E71B
:1013B000002201230024904694E50A00BC4200D09C
:1013C0006AE64B4500D067E668E6234B5344002BA2
:1013D00000DC19E7012149420A1D8A42894149423C
:1013E0008B4463E60F211140042900D15EE6110011
:1013F000F2E7BC4200D807E602235B429C46009914
:101400004F444F459B41E3448C465B426344C018C4
:10141000FCE54946009D480048458941AC464942A3
:1014200061448146023A6418C8E780245B4624037D
:101430001C4324039046054B240B53E59945E8D300
:101440000A00BEE7002309E701F8FFFFFF070000DD
:101450003E0400001E040000FF030000F0B55746E4
:10146000DE464E464546E0B50D000400E80F8346D3
:101470000903D80F090B824619488C461F036900DF
:101480005E00490D3F0B760D814218D086420FD089
:101490000120B1420DD1BC450BD1944209D1D345B5
:1014A0001CD0002905D160462043431E984100E02E
:1014B0000120F0BCBB46B246A946A046F0BD0120C3
:1014C0008E42F6D1614639430F0017432743F0D1CE
:1014D0005B465246981A431E9841EAE70020E8E727
:1014E000FF070000F0B557464E464546DE46E0B5DC
:1014F0000D000F03390B83B00400804601915800A2
:10150000E90F314F400D8C466E001903824691461B
:10151000760D090BD80FBE421FD0BA450FD0002E52
:101520002FD15546019E3443002D27D10A433AD08E
:10153000002C45D100281AD10120404217E0114368
:101540003BD1002E02D1019F2743F3D0844509D11E
:101550006346002BF0D0604609E0019F27432CD161
:10156000B24524D063460220013B1840013803B045
:10157000F0BCBB46B246A946A046F0BD002CD9D06F
:10158000E4E75446002CEDD08445EBD15645E9DC28
:10159000DEDB019B8B42E5D8DAD1C845E2D80020DA
:1015A000C845E4D2D4E70020002CE0D0DAE71143AC
:1015B00003D18445D6D10020D9E702204042D6E7A6
:1015C0008445E6D0CEE7C046FF070000F0B5574699
:1015D0004E464546DE46E0B50D000F03040080464A
:1015E000E80F390B844683B05800304F400D01910D
:1015F0001E03690082469146490D360BD80FB94249
:1016000020D0BA450FD000292BD101990C43514667
:10161000002937D1324338D0002C44D1002819D1C9
:101620000120404216E0164313D1002902D1019F48
:101630002743F3D0844520D063460220013B184065
:10164000013807E0019F274303D18A45F4D11643AF
:101650001FD0022003B0F0BCBB46B246A946A0464C
:10166000F0BD5446002CE7D08445E5D15145E3DC7C
:1016700003DB019BB342DFD80FD06346002BCFD0F2
:101680006046E7E7002CC9D0D4E70020002CE1D069
:10169000D2E78445D0D10020DCE7C845CCD8002073
:1016A000C845D7D2E9E78445E3D0C5E7FF07000086
:1016B000F0B557464E464546DE46E0B585B000904B
:1016C00001910C034F00CE0F610A009CB046640FDD
:1016D0000C43009900920193C80019035B005B0D55
:1016E0009946019B490ADB0F9C46009B7F0D5B0FCF
:1016F0000B430293009B0390D900C54B8A46994542
:1017000000D1D8E00125AB4665465A4655404A46C9
:10171000BA1AAC469346AE4200D184E0002A00DCFF
:101720001DE34A46002A00D1E0E0B94B9F4200D1B8
:10173000A3E15A460125382A1CDC8022029B1204B0
:10174000134302935A461F2A00DDE0E15B46202244
:10175000029DD21A9540A9460D009140DD400A0035
:101760002B004D46511E8A411D435B461543029A8C
:10177000DA40A41A451BA84280414042241A2302A1
:1017800000D43FE16402640A002C00D146E120004D
:10179000FEF760FD0300083B20212800CA1AD04054
:1017A0009C4002009D4022439F4200DD75E1D81B12
:1017B0000130091A2C008D40C4406B1E9D4113005E
:1017C000C2408B402543002714001D436B0709D0FE
:1017D0000F232B40042B05D02B1DAB42AD416D4296
:1017E00064191D00230200D43AE1894A0137974267
:1017F00000D103E1012643468649ED0821404A070E
:101800002A437C054D022D0B640D1E4024052C43FC
:10181000F60734431000210005B0F0BCBB46B246C9
:10182000A946A046F0BD002A00DCABE24A46002AE9
:1018300000D0D5E0029A0A4300D12AE101225B469A
:1018400052425A44012B00D1D3E1714B9B4500D148
:1018500043E20125382A17DC93465B461F2B00DD47
:10186000DEE12022D21A029B5D46934099460B008E
:1018700091400A00EB404D46511E8A411D435B4694
:101880001543029ADA40A4182D188542804140423F
:101890002418230200D4B5E05D4B01379F4200D1EC
:1018A000ACE001215B4B6A081C4029400A43E50774
:1018B000154364088AE7029A0A432ED0664532D05F
:1018C0004F4568D0002F00D1DCE06646029BC90876
:1018D0005A070A43DC081300234300D13BE280256A
:1018E0002D0325432D034A4C2D0B8FE7029A0A4303
:1018F00000D1CEE0012252425A4494465A46012A6F
:1019000000D184E1424B9B4500D1B6E063460125FE
:10191000382B00DD2EE7E34614E7654601225540EB
:10192000AC466645CCD14F4500D1BAE0002F00D07F
:1019300028E1CB462200024300D1D3E101235B42E0
:101940005B449C465B46012B00D1EDE1304A934558
:1019500000D117E163460127382B14DC63461F2BA7
:1019600000DDCCE1070020222500D21ADF40DC4058
:10197000029B90409C469540A444421E9041634681
:101980002F43074302937D188D429241029B52429E
:101990004F46D4187DE7204D7A1C2A4200D09FE0A4
:1019A00022000243002F00D015E1002A00D188E177
:1019B000029B0B4300D148E1029B451AE21AA84260
:1019C0009B415B42D31A1A0200D4B6E10D1AA94218
:1019D0009241029B52421C1B6646E046A41AF5E661
:1019E0000B4B9F4249D05A460125382A00DD4BE770
:1019F0008022029B1204134302932EE73C00002531
:101A0000002203E707232B40002B00D0E0E664E030
:101A1000FF070000FFFF7FFFFE0700002800FEF722
:101A200019FC030018331F2B00DCB5E62A00083828
:101A300082409F4200DDABE0DB1B581C1F2800DC0E
:101A400085E115001F3BDD40202805D040231B1AEF
:101A50009A40531E9A411543072300272B40D3E792
:101A6000EA0863071A43CC4BE4089F4200D132E7EF
:101A70002403250B7C05640DC8E66207C0080243F9
:101A8000E40828E7CB462200024351D16646029C77
:101A90000391039B5F46DA08E3E7C04CFF1A14404A
:101AA00094E6BF4D7A1C2A4278D122000243002FCF
:101AB00066D1002A00D118E1029B0B4300D1C4E09B
:101AC000029B45189C46854280416444404224184C
:101AD000230202D5B14B01371C40BB460395D8E722
:101AE000451AA842924152429146029BE31A1A00BB
:101AF0004B46D21A130091461A0262D44A464C460B
:101B00002A4300D040E60026002400257EE65B46FE
:101B1000029D203AD540202B05D04022D21A029BAC
:101B2000934019438A4653465A1E93411D4321E66A
:101B30005B465E1E012B00D1B8E0974A934500D169
:101B4000C3E6E0460125382E11DC1F2E00DD9CE0A7
:101B500020222500921B070090409540F740F4405A
:101B6000421E9041029B3D431B1B054302934D1BAC
:101B7000A9429241029B524266464F469C1AFEE59C
:101B8000002A67D1029BC9085A070A43DC08A2E66B
:101B9000824CFF1A14406207E40869E77E4DAA42AE
:101BA00000D1BDE0411881428041029B4042E318D0
:101BB0001B18DD075C08072349080D4317002B405D
:101BC00022E70D1AA9429241029B52421C1B664613
:101BD000E046A41AD8E5002A3CD1029803000B4342
:101BE0001A1E00D1AFE0C908420766460A43C4087E
:101BF00071E6029B45189C46854280416444404200
:101C000024180127230200D4FCE6022749E6451ADE
:101C1000A8428041029B4042E41A0127241AAEE503
:101C2000029D5A462B00203AD3409C465B46202B0F
:101C300005D04022D21A2B00934019438A465546BC
:101C40006B1E9D4163461D431EE66207C0080243AA
:101C5000E4080DE7029DC0082B000B434BD0620740
:101C600010438022E4081203144208D02B00ED0830
:101C7000154204D166462C00C8085B071843420F82
:101C8000C000C0085207024325E632002700203A70
:101C9000D740202E05D04022921B944025000543BA
:101CA0000395039D6A1E95413D4360E70D1AA942C5
:101CB0009241029B52421C1B6646E0460127A41A31
:101CC0005DE5029803000B431A1E00D11BE7C9080B
:101CD000420766460A43C408CAE66207C0080243D0
:101CE000E408F8E5029C0391D3E6029BC9085A0771
:101CF0000A43DC08BCE662070243E408EBE56246FF
:101D00002700203AD740202B05D04022D21A9440F9
:101D1000250005430395039D6A1E95412F4332E636
:101D200014000025002271E5029B45189C468D4257
:101D3000924164445242A41863E71A001C002A43EB
:101D400000D0CAE6DFE6802400262403C7E5202170
:101D50000025091A33E5002200250F4C56E5002A1C
:101D600000D118E64B46DE1BB346002F00D18AE6B1
:101D7000382E04DC80221204A8461443E5E6A84667
:101D80000125F4E6002A00D18BE64B46DB1B9C467E
:101D9000002F07D19B46CDE5FF070000FFFF7FFF27
:101DA000FE0700000127382B00DDECE5802212043D
:101DB0001443D3E50B00020070B5164D0C0382B03E
:101DC0004900002000920193240B490DDE0FA94227
:101DD00004DD1148814203DD104BF01802B070BDE4
:101DE0008020400320430E4C641A1F2C08DD0D4B4D
:101DF0005B1AD84003005842002EEFD11800EDE7DF
:101E0000094B009A9C46030061448B40E240134317
:101E1000F1E7C046FE0300001D040000FFFFFF7F46
:101E20003304000013040000EDFBFFFFF8B5C046CB
:101E3000F8BC08BC9E467047F8B5C046F8BC08BC64
:041E40009E46704703
:101E44000C0F0008FE0E0008DC0E0008080F000846
:101E5400DC0E0008FA110008DC0E0008080F000868
:101E6400FE0E0008FE0E0008FA110008080F000814
:101E7400C40E0008C40E0008C40E00086C1200084A
:041E8400B902000897
:041E880091020008BB
:04000005080005B139
:00000001FF
